:020000041008E2
:4000000000780408EB0208100D00000051030810510308105103081051030810000000000000000000000000000000004D0308104D030810000000004D0308104D030810DA
:400040004D0308104D0308104D0308104D0308104D0308104D0308104D0308104D0308104D0308104D0308104D0308104D0308104D0308104D0308104D0308104D03081000
:400080004D0308104D0308104D0308104D0308104D0308104D0308104D0308104D0308104D0308104D0308104D0308104D0308104D0308104D0308104D0308104D030810C0
:4000C0004D0308104D0308104D0308104D0308104D0308104D0308104D0308104D0308104D0308104D0308104D0308104D0308104D0308104D0308104D0308104D03081080
:400100004D0308104D0308104D0308104D0308104D0308104D0308104D0308104D0308104D0308104D0308104D0308104D0308104D0308104D0308104D0308104D0308103F
:400140004D0308104D0308104D0308104D0308104D0308104D0308104D0308104D0308104D0308104D0308104D0308104D0308104D0308104D0308104D0308104D030810FF
:400180004D0308104D0308104D0308104D0308104D0308104D0308104D0308104D0308104D0308104D0308104D0308104D0308104D0308104D0308104D0308104D030810BF
:4001C0004D0308104D0308104D0308104D0308104D0308104D0308104D0308104D0308104D0308104D0308104D0308104D0308104D0308104D0308104D0308104D0308107F
:400200004D0308104D0308104D0308104D0308104D0308104D0308104D0308104D0308104D0308104D0308104D0308104D0308104D0308104D0308104D0308104D0308103E
:400240004D0308104D0308104D0308104D0308104D0308104D0308104D0308104D0308104D0308104D0308104D0308104D0308104D0308104D0308104D0308104D030810FE
:400280004D0308104D0308104D03081010B5054C237833B9044B13B10448AFF300800123237010BDA07202080000000050920810084B10B51BB108490848AFF30080084857
:4002C000036803B910BD074B002BFBD0BDE81040184700BF00000000A472020850920810E0460208000000007047FFF7FDFF72B6104C114DAC4209DA21686268A368043B6C
:40030000A2BFC858D050FAE70C34F3E70B490C4A00209142BCBF41F8040BFAE709480A490860BFF34F8F02F097F801F0E7FE01F04FFDFEE74C74091064740910A0720208E5
:40034000C89502080040020808ED00E0FEE7FEE700B504207146084202D0EFF3098001E0EFF30880043003F0E7F9FEE780B483B000AF78607B681B6843F000427B681A60B9
:4003800000BF0C37BD465DF8047B704780B582B000AF7860044A7968044803F019FC034618460837BD4680BD789502080000674080B582B000AF786039603A687968044802
:4003C00003F028FD034618460837BD4680BD00BF0000674080B586B002AFF8600B467A60FB72FA7A054B00937B68F968044803F0B1FE034618461037BD4680BD789502087F
:400400000000674080B586B002AFF8600B467A60FB72FA7A054B00937B68F968044803F029FF034618461037BD4680BD789502080000674080B582B000AF7860044A7968FE
:40044000044803F0ADFF034618460837BD4680BD789502080000674080B586B002AF0346B9607A60FB73F97B054B00937B68BA68044803F0DBFF034618461037BD4680BD44
:40048000789502080000674080B582B000AF03463960FB71F979054B3A68054804F044F8034618460837BD4680BD00BF789502080000674080B586B000AF3B600346FB712C
:4004C0000B46BB7113467B710023FB73A048FFF75DFF78617B69002B01D001F0E7FA9D499D48FFF765FF38613B699B4A934201D901F0DCFA9948FFF739FFFF2207F10F03ED
:400500001146184600F030F91522FB7B9A4201D001F0CCFAFE2207F10F031146184600F023F9FA7B8E4B1A7000F0EAF9BB79012B04D10023184600F00FFA2BE0BB79022B2B
:4005400004D12023184600F007FA23E0BB79042B04D14023184600F0FFF91BE0BB79082B04D16023184600F0F7F913E0BB79102B04D18023184600F0EFF90BE0BB79202BBE
:4005800004D1A023184600F0E7F903E04023184600F0E2F900F0F0F97B79032B04D10723184600F0F3F90BE07B79022B04D10323184600F0EBF903E00223184600F0E6F964
:4005C000684A7B7913707B6AB3F5805F04D20023184600F0EBF91EE07B6AB3F5005F04D22023184600F0E2F915E07B6AB3F5804F04D24023184600F0D9F90CE07B6AB3F5EC
:40060000804F04D16023184600F0D0F903E00023184600F0CBF93B68632B04D80023184600F0D4F941E03B68C72B04D80423184600F0CCF939E03B68B3F5C87F04D20823A1
:40064000184600F0C3F930E03B68B3F5487F04D20C23184600F0BAF927E03B68B3F57A7F04D21023184600F0B1F91EE03B68B3F5C86F04D21423184600F0A8F915E03B68E8
:40068000B3F5486F04D21823184600F09FF90CE03B68B3F5486F04D11C23184600F096F903E00023184600F091F93B6A752B04D80023184600F09AF91EE03B6AD62B04D882
:4006C0000123184600F092F916E03B6AB3F5CD7F04D80223184600F089F90DE03B6A40F29B12934204D10323184600F07FF903E00023184600F07AF9FB79184600F086F98E
:40070000FB79184600F092F9FB79184600F09EF9FB79184600F0AAF901231946012000F0B5F97B79012B04D902231946022000F0ADF97B79022B04D903231946032000F09D
:40074000A5F900F0E1F900BF1837BD4680BD00BF6888081084D71700A086010000006740B9910208B891020880B584B000AF78600B46FB70FF23FB60642200215720FFF7D8
:4007800029FEF860FB68002B2BD1FB7864211846FFF77AFEF860FB68002B24D1642201215720FFF72FFEF860FB68002B1DD1642279680120FFF750FEF860FB68002B07D0F2
:4007C000FB680F4A934203D0FB680E4A93420DD16420FFF72FFE0346002B07D10023FB6004E000BF02E000BF00E000BFFB68002B01D0FF23FB60FB6818461037BD4680BDAF
:400800000520AA000420AA0080B584B000AF03460A46FB711346BB71FF23FB60642200215720FFF7D7FDF860FB68002B22D1BB7964211846FFF728FEF860FB68002B1BD136
:40084000FB7964211846FFF71FFEF860FB68002B07D0FB680E4A934203D0FB680D4A93420BD16420FFF7E6FD0346002B05D10023FB6002E000BF00E000BFFB68002B01D0BF
:40088000FF23FB60FB6818461037BD4680BD00BF0520AA000420AA0080B584B000AF0346FB710B46BB7113467B710023FB72FF23FB60FA7907F10B0311461846FFF754FF04
:4008C000F860FB68002B0FD1FA7ABB791340DAB27B791343DBB2FB72FB7AFA7911461846FFF792FFF86000E000BFFB68002B01D0FF23FB60FB6818461037BD4680BD00BF69
:4009000080B582B000AF0023FB700923BF2140221846FFF7C1FF00F00BFC78600EE00922FB1C11461846FFF71FFFFB7840221340DBB2002B0AD0012002F0D0FE00F0F8FB4B
:4009400002467B68D31A632BE9D900E000BF00BF0837BD4680BD00BF80B582B000AF0346FB7108201F21FB791A46FFF795FF00BF0837BD4680BD00BF80B500AF0823EF21C6
:4009800010221846FFF788FF00BF80BD80B582B000AF0346FB710920F821FB791A46FFF77BFF00BF0837BD4680BD00BF80B582B000AF0346FB710A209F21FB791A46FFF761
:4009C0006BFF00BF0837BD4680BD00BF80B582B000AF0346FB710A20E321FB791A46FFF75BFF00BF0837BD4680BD00BF80B582B000AF0346FB710A20FC21FB791A46FFF79A
:400A00004BFF00BF0837BD4680BD00BF80B582B000AF0346FB710C22FB7911461846FFF7F3FE00BF0837BD4680BD00BF80B582B000AF0346FB710D22FB7911461846FFF750
:400A4000E3FE00BF0837BD4680BD00BF80B582B000AF0346FB710E22FB7911461846FFF7D3FE00BF0837BD4680BD00BF80B582B000AF0346FB711022FB7911461846FFF794
:400A8000C3FE00BF0837BD4680BD00BF80B582B000AF03460A46FB711346BB71FB79013B032B2BD801A252F823F000BFBD0A0810CB0A0810DD0A0810EB0A08101120F82116
:400AC000BB791A46FFF7E8FE19E011208F21BB791B01DBB21A46FFF7DFFE10E01220F821BB791A46FFF7D8FE09E012208F21BB791B01DBB21A46FFF7CFFE00E000BF00BFD8
:400B00000837BD4680BD00BF80B500AF042319460020FFF779FE052319460020FFF774FE062319460020FFF76FFE00BF80BD00BF80B582B000AF0023FB710422FB1D114671
:400B40001846FFF711FEFB7918460837BD4680BD80B582B000AF0023FB710622FB1D11461846FFF701FEFB7918460837BD4680BD80B586B000AF0023BB7200237B72002344
:400B8000FB820023BB8200237B8200237B6000233B60FF23FB600023FB72FFF7D9FF0346BB72FFF7C5FF03467B72BA7A7B7A9A4200F058817B7A9AB2BB7A9BB2D31A9BB270
:400BC000FB82B7F91630002B03DAFB8A20339BB2FB82A94B1B789AB2FB8A12FB03F39BB21A46520013449BB2BB82642200215720FFF7F0FB072364211846FFF745FCF86002
:400C0000FB68002B40F02581642201215720FFF7F9FBF860FB68002B40F01D810DE1BB8A7B82B7F91230202B10DD934B1B781A4613465B001344202292FBF3F103FB01F3B8
:400C4000D31A9BB2C3F120039BB27B82BA8A7B8AD31A9BB2BB82EBE0874B1B789BB21A469B00D31A9AB27B8A13449BB27B82B7F91230002B06D1B7F91430002B02D10123F8
:400C8000FB7201E00023FB727C4B93F830300133DAB27A4B83F83020784B93F8303003F00303DAB2754B83F830200023FB713B1D0233642219460020FFF7CEFBF8603B1D06
:400CC0000133642219460020FFF7C6FB0246FB681343FB60684B1B78012B0AD1391DFB7A64221846FFF7B8FB0246FB681343FB6009E03B1D642219460020FFF7ADFB02467B
:400D0000FB681343FB60FB68002B40F0A680391D3B460422184605F09EFE3B68C3F311033B60564B93F8303019463B68534A42F82130514B1B78012B42D90023FB713B1DB4
:400D40000233642219460020FFF786FBF8603B1D0133642219460020FFF77EFB0246FB681343FB60444B1B78022B0AD1391DFB7A64221846FFF770FB0246FB681343FB6078
:400D800009E03B1D642219460020FFF765FB0246FB681343FB60FB68002B60D1391D3B460422184605F057FE3B68C3F311033B60324B93F830303A683049043341F8232099
:400DC0002D4B1B78022B33D90023FB713B1D0233642219460020FFF73FFBF8603B1D0133642219460020FFF737FB0246FB681343FB60391DFB7A64221846FFF72DFB0246DC
:400E0000FB681343FB60FB68002B2AD1391D3B460422184605F01FFE3B68C3F311033B60164B93F830303A681449083341F82320B7F91230002B3FF70FAFB7F91430002B6E
:400E40003FF7EDAE6420FFF7F5FAF860FB68002B08E000BF06E000BF04E000BF02E000BF00E000BFFB68002B01D0FF23FB60FB8A18461837BD4680BDB89102082C8F0208BD
:400E800080B584B000AF0346FB7100F051F9F86000F04EF90246FB68D21AFB799A4201D900230AE0FFF764FE0346012B01D1012303E0012002F012FCEAE718461037BD468E
:400EC00080BD00BF80B500AFFA20FFF7D9FF0346002B07D0054B93F830301A46034B53F8223000E00023184680BD00BF2C8F020880B500AFFA20FFF7C3FF0346002B07D036
:400F0000054B93F83030044A043352F8233000E00023184680BD00BF2C8F020880B483B000AF0C4B93F830200A4B93F83130D31ADBB2FB7197F90730002B03DAFB79043349
:400F4000DBB2FB71FB7918460C37BD465DF8047B704700BF2C8F020880B500AFFFF7DEFF0346002B10D0094B93F831300133DAB2064B83F83120054B93F8313003F00303F4
:400F8000DAB2024B83F8312000BF80BD2C8F020880B483B000AF0346FB80B7F90630002B0BDB0949B7F906305B09FA8802F01F02012000FA02F241F8232000BF0C37BD4639
:400FC0005DF8047B704700BF00E100E080B483B000AF0346FB80B7F90630002B0CDB0949B7F906305B09FA8802F01F02012000FA02F2603341F8232000BF0C37BD465DF86B
:40100000047B704700E100E080B483B000AF786039607B683A689A6000BF0C37BD465DF8047B704780B483B000AF786039607B683A681A6100BF0C37BD465DF8047B70470C
:4010400080B485B000AFF860B9607A60FA68BB689B01134403F598737A681A60FA68BB689B01134403F598731B6800BF1437BD465DF8047B704700BF80B485B000AFF86071
:40108000B9607A60FA68BB689B01134403F58A737A681A6000BF1437BD465DF8047B704780B500AF012200210548FFF7C9FF054B1B680133034A136008F002FA00BF80BDF2
:4010C00000003840BC91020880B500AF0849094802F074FA074BB3F900301846FFF776FF044BB3F900301846FFF752FF00BF80BDA11008108481081080B500AF0A4A002139
:401100000A4803F08FFD01210848FFF77DFF40F2E73200210548FFF7AFFF01210348FFF781FF00BF80BD00BFDC8708100000384080B400AF034B1B681846BD465DF8047B23
:40114000704700BFBC91020880B5B0B004AFF860B9607A603B600023C7F88C300023C7F88830BB68C7F880300023C7F8AC300023C7F8A8300FE0D7F8A8309B00FA68134448
:401180001B68D7F8AC201344C7F8AC30D7F8A8300133C7F8A830D7F8A820BB689A42EADBBB68D7F8AC20B2FBF3F3C7F8AC300023C7F8A83013E0D7F8A8309B00FA681344BE
:4011C0001B68D7F8AC20D31A1946BE4AD7F8A83042F82310D7F8A8300133C7F8A830D7F8A820BB689A42E6DB0023C7F8A83028E0B44AD7F8A83052F82320D7F8A8300133D1
:40120000B04951F823301A44D7F8A8300233AD4951F823301A44D7F8A8300333A94951F823301344002B00DA03339B101946A54AD7F8A83042F82310D7F8A8300133C7F84B
:40124000A830D7F880301A1FD7F8A8309A42CFDC0023C7F89C300023C7F8A8300EE0994AD7F8A83052F82330D7F89C201344C7F89C30D7F8A8300133C7F8A830D7F8A820BD
:40128000D7F880309A42EADBD7F89C20D7F8803092FBF3F3C7F89C30D7F89C301D2B02DC0023C7F89C30D7F89C303C2B02DD3C23C7F89C300023C7F8A8300DE0D7F8A8307E
:4012C0009B0007F1B0021344002243F88C2CD7F8A8300133C7F8A830D7F8A8300E2BEDDD07F1600107F124000F230293D7F8C8300193D7F89C300093D7F88030714A00F032
:4013000051FA0023C7F898303B6E012B40DD0123C7F8A8301BE0D7F8A8309B0007F1B002134453F88C2CD7F8A830013B9B0007F1B0010B4453F88C3CD31AD7F89820134476
:40134000C7F89830D7F8A8300133C7F8A8303B6ED7F8A8209A42DEDB3B6E013BD7F8982092FBF3F3C7F89830D7F8C42013461B019B1A9B001A46D7F89830B2FBF3F31A46D7
:40138000D7F8BC301A60D7F8C03001221A7007E0D7F8BC304C4A1A60D7F8C03000221A700023C7F8A8301CE0D7F8A8309B00FA6813441B681946434AD7F8A83042F823103B
:4013C000D7F8A8309B007A6813441B6819463F4AD7F8A83042F82310D7F8A8300133C7F8A830D7F8A820BB689A42DDDB3B6EFB670023C7F884300023C7F8A4300023C7F8FA
:40140000A8300DE0D7F8A8309B0007F1B0021344002243F8A02CD7F8A8300133C7F8A830D7F8A830042BEDDD0023C7F8A83018E0D7F8A8309B0007F1B002134453F88C2C71
:40144000D7F880309A4207DD3B681F4A1A60D7F8B83000221A7099E1D7F8A8300133C7F8A830D7F8A820FB6F9A42E1DB0023C7F8A83038E14FF07F43C7F894304FF07F4367
:40148000C7F89030D7F8A83001339B0007F1B002134453F88C2CD7F8A8309B0007F1B0010B4453F88C3CD31A032B40F31781D7F8A8309B0007F1B002134453F88C3CC7F8EB
:4014C000A03032E0BC72020819FCFFFF1C7C0208B04AD7F8A03052F82320D7F890309A420ADDAC4AD7F8A03052F82330C7F89030D7F8A030C7F88830A74AD7F8A03052F804
:401500002320D7F894309A420ADDA34AD7F8A03052F82330C7F89430D7F8A030C7F88C30D7F8A0300133C7F8A030D7F8A83001339B0007F1B002134453F88C2CD7F8A030D1
:401540009A42C5DCD7F8A83001339B0007F1B002134453F88C3C904A52F82320D7F8A8309B0007F1B0010B4453F88C3C8A4951F82330D21AD7F8A8309B0007F1B0010B441B
:4015800053F88C3CD7F88C10CB1A03FB02F3BB67D7F8A8309B0007F1B002134453F88C3C7D4A52F82320D7F8A83001339B0007F1B0010B4453F88C1CD7F8A8309B0007F16E
:4015C000B000034453F88C3CCB1AB96F91FBF3F31344BB67704AD7F88C3052F82320BB6FD31ABB67D7F8A83001339B0007F1B002134453F88C3C674A52F82320D7F8A8306F
:401600009B0007F1B0010B4453F88C3C614951F82330D21AD7F8A8309B0007F1B0010B4453F88C3CD7F88810CB1A03FB02F37B67D7F8A8309B0007F1B002134453F88C3C0E
:40164000544A52F82320D7F8A83001339B0007F1B0010B4453F88C1CD7F8A8309B0007F1B000034453F88C3CCB1A796F91FBF3F313447B67474AD7F88C3052F823207B6F8F
:40168000D31A7B67BB6FD7F8902002FB03F3DB113B677B6FD7F8942002FB03F3DB11FB66FB6E002B1ADDD7F8A430042B16DC3B6F002B13D03B6F642202FB03F2FB6E92FB65
:4016C000F3F2D7F8A4309B0007F1B0010B4443F8A02CD7F8A4300133C7F8A430D7F8A8300133C7F8A830FB6F5A1ED7F8A8309A423FF7C0AE07F11003D7F8A410184600F007
:4017000047F9D7F8A430DA0F13445B10BB66BB6E012B15DDBB6E013B9B0007F1B002134453F8A02CBB6E9B0007F1B0010B4453F8A03C1344DA0F13445B10C7F8843008E05B
:40174000BB6E9B0007F1B002134453F8A03CC7F88430D7F88430022B11DDD7F88430B72B0DDC0E4AD7F8843013441B787B663B687A6E1A60D7F8B83001221A7006E03B6886
:40178000074A1A60D7F8B83000221A70B037BD4680BD00BFBC7202081C7C0208247E081019FCFFFF80B586B002AFF860B9607A603B60BB6900933B687A68B968F86800F0BF
:4017C00013F8FB697A68B968F86800F081F8BB681A683B6A9A42A8BF1A46BB681A6000BF1037BD4680BD00BF80B487B000AFF860B9607A603B6001237B61BB6800221A6060
:401800005AE07B699B007A6813441A683B6A9A424FDD7B699B007A6813441A687B6903F18043013B9B0079680B441B689A4240DD01233B6102E03B6901333B617A693B6992
:401840001A443B689A420DDA7B699B007A6813441A6879693B690B449B0079680B441B689A42E8D07B699B007A6813441A6879693B690B449B0079680B441B689A4213DD8A
:40188000BB681B680E2B0FDCBB681B68591CBA6811609B00FA6813447A691A603B6901337A6913447B6103E07A693B6913447B6102E07B6901337B613B685A1E7B699A42C3
:4018C0009FDC00BF1C37BD465DF8047B704700BF80B588B000AFF860B9607A603B60BB681B681A46F968786800F094F84FF0FF33FB613EE0BB681B687B61FB695A1CBB68DF
:401900001A60FB690133BB612CE0BB699B00FA6813441A68FB69B3F1FF3F05D0FB699B00F9680B441B6801E04FF0FF33D31A3B613A693B689A4204DC3B685A423B699A428A
:401940000DDDBB681B68591CBA6811609B00FA681344BA699200F9680A4412681A60BB690133BB61BA697B699A42CEDBFB690133FB61BB681A68FB699A42BBDCBB681B680D
:401980001946F86800F004F800BF2037BD4680BD80B487B000AF7860396001237B612FE07B699B007A6813441B68FB607B693B610FE03B699B007A681A443B6903F18043AD
:4019C000013B9B0079680B441B6813603B69013B3B613B69002B0ADD3B6903F18043013B9B007A6813441A68FB689A42E1DC3B699B007A681344FA681A607B6901337B6187
:401A00007A693B689A42CBDB00BF1C37BD465DF8047B704780B489B000AFF860B9607A600123FB6137E0FB699B00BA6813441B687B61FB69BB610FE0BB699B00BA681A447B
:401A4000BB6903F18043013B9B00B9680B441B681360BB69013BBB61BB69002B12DD7B699B00FA6813441A68BB6903F18043013B9B00B9680B441B689B00F9680B441B6867
:401A80009A42D9DCBB699B00BA6813447A691A60FB690133FB61FA697B689A42C3DB00BF2437BD465DF8047B704700BF80B400AF72B6FEE780B483B000AF78607B681B68A1
:401AC00043F000427B681A6000BF0C37BD465DF8047B704780B582B000AF786039603B68002B04D140F2A551054801F011FE3968786801F01DFF00BF0837BD4680BD00BF5A
:401B0000DC7E081080B483B000AFB8807B79002B04D17B791A46054B9B5C00E0002318460C37BD465DF8047B704700BF1095020880B582B000AF786039607B6845F2010212
:401B4000934227D045F20102934207D8B3F5805F0DD044F20802934211D03CE045F2020293421FD045F20C02934228D033E01C4804F0F6FF0021002003F036FC2BE01948F2
:401B800004F0EEFF0021002003F02EFC164804F0E7FF20E0154804F0E3FF154A3B681B88138018E002220021114804F05FFF114804F0D6FF0021002003F016FC0BE00C4BB1
:401BC0001A785B781B021A43002362F30F0318460FF008FC00BF00BF0837BD4680BD00BF1C7F0810307F0810487F0810607F0810D0910208747F081080B590B000AF03462C
:401C00000A46FB711346BB71FA79BB7907F10C00064904F0ADFF07F10C0319460448FFF759FF00BF4037BD4680BD00BF887F08100000664080B584B000AF0346FB710823D7
:401C40003B7200237B72FB79BB720023FB7207F108031A460421002004F054FDF860FB68002B30D1FB7919461B4804F007FF1B4B1A785B781B021A43002362F30F03184645
:401C8000FFF740FF0346022B21D107F10801134B1A785B781B021343002063F30F000B460422002104F074FDF860FB68002B05D1FB7919460A4804F0E1FE08E0F968094880
:401CC00004F0DCFE03E0F968074804F0D7FE00BF1037BD4680BD00BF40800810D09102085480081070800810A080081080B584B000AF03460A46FB711346BB7108233B72CC
:401D0000FB797B72BB79BB720023FB7207F108031A460421002004F0F5FCF860FB68002B31D1FB7919461C4804F0A8FE1B4B1A785B781B021A43002362F30F031846FFF7E8
:401D4000E1FE0346022B22D107F10801134B1A785B781B021343002063F30F000B460422002104F015FDF860FB68002B06D1FB79BA7919460A4804F081FE08E0F96809489F
:401D800004F07CFE03E0F968074804F077FE00BF1037BD4680BD00BFAC7F0810D0910208C480081000810810A080081080B483B000AF78607B6844F6206293428CBF012308
:401DC0000023DBB218460C37BD465DF8047B7047F0B5ADF5617D06AF062087F8640397F864030138C7F8600397F864534FF00006F20042EA5572E90097F864134FF000022D
:401E0000D40044EA5174CB0097F864330733DB08DB00ADEB030D06AB0033C7F85C33002387F85B330023C7F85433002387F853330023C7F84C33FFF747F9002387F84B33A0
:401E40000023C7F844330023C7F83033002387F82F330023C7F82833002387F827336423C7F840331E23C7F83C336423C7F8383362B6FFF741F99A4A9A499B4802F062FC6C
:401E8000C7F83403D7F83433002B01D0FFF70EFE9548FFF70FFE954804F0A0FD01E007F00FFB934B1B78022BF9D1924804F0E6FD4FF48053019340F29B13009364230222E7
:401EC00004211F20FEF7F6FA07F0FAFA642001F0E3FB894B64221A60002387F867331EE0FEF746FEFFF71AF80346002BF8D097F86743FEF7E7FF02463B1D43F8242097F80E
:401F00006743FEF7F5FF024607F5CA7343F82420FFF722F897F86733013387F8673397F86723754B1B689A42DCDB734B196807F54C743A1D07F5CA70D7F83C330493D7F86D
:401F40004033039307F22733029307F54A73019307F22F3300932346FFF7F6F8192387F866331EE097F86633A3F1190297F866133B1D53F821103B1D43F8221097F86633F6
:401F8000A3F1190297F8661307F5CA7353F8211007F5CA7343F8221097F86633013387F8663397F86633632BDCD94B2387F865331EE0FEF7DDFDFEF7B1FF0346002BF8D0FD
:401FC00097F86543FEF77EFF02463B1D43F8242097F86543FEF78CFF024607F5CA7343F82420FEF7B9FF97F86533013387F8653397F86533632BDED93F4B1B685A1E07F556
:40200000CA7353F822301846FFF7D0FE0346002B45D0394B196807F54C743A1D07F5CA70D7F83C330493D7F84033039307F22733029307F54A73019307F22F330093234694
:40204000FFF782F897F92F33002B0DD097F92733002B09D0D7F82833DBB2D7F83023D2B211461846FFF742FE97F92F33002B3FF475AF97F92733002B3FF470AFD7F83033B3
:40208000DBB21846FFF7D6FDD7F82833DBB2D7F83023D2B211461846FFF7AEFD5EE70023C7F82833002387F827330023C7F83033002387F82F33D7F82833DBB2D7F8302319
:4020C000D2B211461846FFF711FED7F82833DBB2D7F83023D2B211461846FFF78DFD3DE7409502082888081000006640311B08100895020830810810C091020880B500AF8C
:402100000D4801F0D1FB00F01FF800F025F800220021042000F0B2FC084800F065FF084B1B6893F85130002B02D0064800F070FF00F0ACFA00BF80BD508308107C850208BC
:40214000009502084081081080B400AF00BFBD465DF8047B704700BF80B491B000AFB04BD3F8803303F00F037B63AD4A7B6BD03352F8233003F007033B633B6B042B3AD879
:4021800001A252F823F000BF9D210810A3210810A9210810AF210810B7210810A14BFB632CE0A14BFB6329E09F4BFB6326E09F4B1B68FB6322E09A4A7B6BC03352F82330D6
:4021C00003F01F03FB62FB6A112B07D0132B09D0102B0BD14FF4FA43FB630BE04FF40043FB6307E04FF40043FB6303E04FF4FA43FB6300BF02E08C4BFB6300BF7B6B002BE8
:4022000060D1874BD3F8903503F00103002B14BF0123002387F82B30814BD3F8883503F040531B0F032B0CBF0123002387F82A307B4BD3F8883503F040531B0F002B07D0D8
:40224000774BD3F8883503F040531B0F012B01D1012300E0002387F8293097F8293003F0010387F8293097F82930002B03D097F82B30002B03D197F82A30002B1FD0684B2B
:40228000D3F88035C3F311037B62654BD3F88435C3F30C033B62624BD3F8803503F080731B0E0133FB61FA6B3B6AB2FBF3F37A6A02FB03F2FB69B2FBF3F3BB6360E0FB6B67
:4022C000BB635DE07B6B012B58D1554BD3F8403603F00103002B14BF01230023FB76504BD3F8003603F040531B0F032B0CBF01230023BB764A4BD3F8003603F040531B0FB7
:40230000002B07D0464BD3F8003603F040531B0F012B01D1012300E000237B767B7E03F001037B767B7E002B02D0FB7E002B02D1BB7E002B1FD03A4BD3F8003603F07F03A7
:402340007B61374BD3F8003603F4F8531B0A3B61334BD3F8003603F4F8131B0CFB60FB6B7A6902FB03F23B69B2FBF3F2FB68B2FBF3F3BB6304E0FB6BBB6301E0FB6BBB63A6
:40238000274BD3F8803303F030031B09BA6B22FA03F3BB63264ABB6B1360264BD3F8903003F47F431B0A0133BB60224B1B6903F07F431B0E01337B60BA6B7B68B2FBF3F3E3
:4023C0001D4A1360BA6BBB68B2FBF3F3BB631B4ABB6B1360194B1B68194A1360184B1B6803F5742303F23F23164AA2FB03239B0CDAB2154B1A70124B1B6803F2E733134AF7
:40240000A2FB03239B09124A1360114B1B68DB03104A136000BF4437BD465DF8047B70470000264000127A0000366E01984202089042020800002140944202088C420208A4
:402440009C42020883DE1B43A4420208D34D6210A0420208A842020880B582B000AF01F008FA7860094A094BD3F8883043F47003C2F88830BFF34F8FBFF36F8F786801F01B
:40248000FCF900BF0837BD4680BD00BF00ED00E080B500AF012000F057FF00BF80BD00BF80B483B000AF0346FB80B7F90630002B0BDB0949B7F906305B09FA8802F01F0255
:4024C000012000FA02F241F8232000BF0C37BD465DF8047B704700BF00E100E080B400AF084B1B681A68074B1B68D3F8843013441B6803F07F431B0EDBB21846BD465DF8B7
:40250000047B70470095020880B400AF084B1B681A68074B1B68D3F8843013441B6803F47F431B0ADBB21846BD465DF8047B70470095020880B582B000AF78600E4B1B689D
:4025400093F831301A467B689A4204D840F2C3110A4801F0DDF8084B1B681A6A064B1B68B3F8B03019467B6803FB01F3134418460837BD4680BD00BF009502088C810810B2
:4025800080B483B000AF78607B68DB6818460C37BD465DF8047B704780B483B000AF7860084B1B68D3F8B4207B6813441B6803F00043DB0FDBB218460C37BD465DF8047B93
:4025C000704700BF0095020880B584B000AFF860B9607A607B68002B04D140F29331074801F096F87B681A46B968F86800F09CF9034618461037BD4680BD00BF8C81081061
:4026000080B584B000AF78601C4A7B6813601B4B1B68002B0BD0194B1B6802221A70174B1B68FF225A70154B1B6800225A80144B1B6893F85030002B1CD0114B1B68B3F92C
:4026400038303B810023FB6007F108030D49184600F0B4FFB7F908301846FFF721FF084B1B6893F85130002B04D002220649012000F00CFE00BF1037BD4680BDFC860208C1
:4026800000950208E1490208E546020880B500AF0248FFF7B5FF00BF80BD00BF2087020880B485B000AF78607B682E4A93423FD02C4A93420ED8402B40D0402B04D8002B81
:4026C0001FD0102B37D042E0802B3AD0B3F5807F3AD03CE0244A934219D0234A934206D8B3F1204F10D0214A93421DD02FE0204A934213D01F4A934213D01F4A93420AD02F
:4027000025E00023FB6025E00023FB6022E04FF4A403FB601EE0194BFB601BE0184BFB6018E0184BFB6015E04FF4A003FB6011E00C4BFB600EE0144BFB600BE0134BFB60FB
:4027400008E0134BFB6005E0064BFB6002E0114BFB6000BFFB6818461437BD465DF8047B704700BF06005200010000F0090000A0040000F0050000F0030000F00100520055
:402780000200520003005200010050000200500005005200FF00520080B582B000AF134B7B600120FFF7C6FE03461846FFF7F4FE034683F00103DBB2002B12D00C4B1B6838
:4027C0001846FFF76DFF78600A4B1B685B681A460123936000BF074B1B685B689B68002BF9D17B6818460837BD4680BD02005000008702080095020880B582B000AF7860B0
:4028000039603B681B0C1B04002B04D040F2BB21054800F07DFF3B689AB27B689A6000BF0837BD4680BD00BFCC81081080B582B000AF786039603B681B0C1B04002B04D0B3
:4028400040F2D521054800F063FF3B689AB27B685A6000BF0837BD4680BD00BFCC81081080B483B000AF786039607B683A68DA6000BF0C37BD465DF8047B704780B483B066
:4028800000AF78607B68DB6818460C37BD465DF8047B704780B483B000AF7860084B1B68D3F8B4207B6813441B6803F00043DB0FDBB218460C37BD465DF8047B704700BF81
:4028C0000095020880B483B000AF78607B681B6803F00043002B01DA002300E0034B18460C37BD465DF8047B704700BF01008A0080B584B000AF786039607868FFF7CAFFB7
:402900000346002B06D039687868FFF78FFF0023FB6001E0034BFB60FB6818461037BD4680BD00BF01008A0080B586B000AFF860B9607A60F868FFF7C5FF0346002B0AD1E0
:402940007968F868FFF78CFFB968F868FFF754FF00237B6101E0034B7B617B6918461837BD4680BD01008A0080B584B000AF786039603B68002B03D199210C4800F0C8FE76
:402980007868FFF787FF0346002B08D07868FFF775FF02463B681A600023FB6001E0044BFB60FB6818461037BD4680BD0C82081001008A0080B582B000AF78600E4B1B6874
:4029C00093F831301A467B689A4204D840F2C3110A4800F09DFE084B1B681A6A064B1B68B3F8B03019467B6803FB01F3134418460837BD4680BD00BF009502084C820810A8
:402A000080B483B000AF78607B68DB6818460C37BD465DF8047B704780B584B000AFF860B9607A607B68002B04D140F29331074800F06EFE7B681A46B968F868FFF774FF3F
:402A4000034618461037BD4680BD00BF4C82081080B483B000AF78607B681B6803F00043002B01DA002300E0034B18460C37BD465DF8047B704700BF01008A0080B586B0BE
:402A800000AFF860B9607A60144B7B617B68002B0BD1BB68002B08D1F868FFF78BFF02460F4B1A6000237B6113E07B68002B0ED0BB68002B0BD00B4ABB681360094A7B68AC
:402AC00053600849F86800F00FF8786101E0034B7B617B6918461837BD4680BD03018A00248702082887020880B584B000AF78603960284BFB60284B1B6893F831301A4631
:402B00007B689A4202D8234BFB603EE03B68002B39D03B681B6803F01F03002B30D17868FFF748FF02461D4B1A603B6858683B681B68DB081A46002103F098FF174B1B6834
:402B400000211846FFF7D4FE144B1B683A6800211846FFF761FF0346002B0ED10F4B1B6800211846FFF7C4FE0346002B02D10023FB600AE00A4BFB6007E0094BFB6004E075
:402B8000044BFB6001E0034BFB60FB6818461037BD4680BD03018A00009502082487020801018A0080B588B000AF78600B46FB700023FB612F4BBB612F4B1B681846FFF715
:402BC0001FFF03467B617B691A687B689A4249D97B685B093B613B695B017A68D31A012202FA03F3FB60FB7883F00103DBB2002B02D000F03EFEF8611F4B1B681846FFF7EF
:402C000027FF0346002B23D17B695A683B699B0013441A68FB681340002B11D07B695A683B699B0013447A6951683A6992000A441168FA68D2430A401A600023BB6101E057
:402C40000E4BBB610C4B1B6800211846FFF750FEFB7883F00103DBB2002B05D0F86900F00CFE01E0064BBB61BB6918462037BD4680BD00BF0301880024870208020188007E
:402C800004018A0080B586B000AF7860164B1B681846FFF7B5FE03463B613B691A687B689A421AD97B685B09FB60FB685B017A68D31A012202FA03F3BB603B695A68FB68C2
:402CC0009B0013441A68BB681340002B02D0074B7B6104E0064B7B6101E0064B7B617B6918461837BD4680BD24870208010188000001880004018A0080B483B000AF034619
:402D0000FB80B7F90630002B0BDB0949B7F906305B09FA8802F01F02012000FA02F241F8232000BF0C37BD465DF8047B704700BF00E100E080B483B000AF0346FB80B7F9CB
:402D40000630002B10DB0B49B7F906305B09FA8802F01F02012000FA02F2203341F82320BFF34F8FBFF36F8F00BF0C37BD465DF8047B704700E100E080B582B000AF786077
:402D80000E4B1B6893F831301A467B689A4204D840F2C3110A4800F0BBFC084B1B681A6A064B1B68B3F8B03019467B6803FB01F3134418460837BD4680BD00BF00950208D2
:402DC0008C82081080B582B000AF78600C4B1B6893F832301A467B689A4204D840F2DF11084800F095FC064B1B681B6A1A467B6880335B01134418460837BD4680BD00BF6C
:402E0000009502088C82081080B584B000AFF860B9607A607B681B0C1B04002B04D04FF4FF710C4800F074FCBB681B0C1B04002B04D040F2FF11074800F06AFC7B681A048B
:402E4000BB689BB21A43FB689A6000BF1037BD4680BD00BF8C82081080B483B000AF78607B68DB6818460C37BD465DF8047B704780B483B000AF78607B681B6818460C37C5
:402E8000BD465DF8047B704780B584B000AFF860B9607A607B681B0C1B04002B04D04FF426710D4800F034FCBB681B0C1B04002B04D040F29921084800F02AFC7B681A04EF
:402EC000BB689BB21A43FB681A60FB681B6800BF1037BD4680BD00BF8C82081080B582B000AF786039603B681B0C1B04002B04D040F2BB21054800F00BFC3B689AB27B6884
:402F00009A6000BF0837BD4680BD00BF8C82081080B483B000AF786039607B683A68DA6000BF0C37BD465DF8047B704780B483B000AF7860084B1B68D3F8B4207B68134401
:402F40001B6803F00043DB0FDBB218460C37BD465DF8047B704700BF0095020880B483B000AF78607B681B0C18460C37BD465DF8047B704780B483B000AF78607B689BB24F
:402F800018460C37BD465DF8047B704780B582B000AF786039603B68002B04D140F2B631054800F0B5FB39687868FFF7DDFC034618460837BD4680BD8C82081080B483B0AF
:402FC00000AF78607B681B6803F00043002B01DA002300E0034B18460C37BD465DF8047B704700BF01008A0080B483B000AF7860064B1B68002B02D1044A7B68136000BFBB
:403000000C37BD465DF8047B704700BF30870208B0B590B002AF78607B68002B03D152212F4800F075FB7B689B69072B03D956212B4800F06DFB7B68DB6A002B03D158210E
:40304000274800F065FB7B681B6B002B03D15921234800F05DFB7B6807F11C0403F114050FCD0FC42B6823607B6807F108041D460FCD0FC42B6823601A4B1B68B3F9363026
:403080009AB2FB699BB213449BB21BB23B863B6A7B63B86A7B68D96A7B689A6AFC6A07F130030093234600F01FF87869BA690023009313460022002100F016F87B681A6BDF
:4030C00007F130031146184600F078FAB7F930301846FFF711FE00BF3837BD46B0BD00BFCC8208100095020880B586B000AFF860B9607A603B60254B1B68002B03D1B521F1
:40310000234800F005FB214B1A68FB682C2101FB03F313447B613B68DAB27B691A603B681B0ADAB27B695A603B681A0C7B699A607B691B681846FFF71FFE02467B691A61CC
:403140007B695B681846FFF73DFE02467B695A617B6958697B6999687B699B681A46FFF753FE7B697A68DA617B69BA681A627B6900229A613B6A002B04D03B6AB3F9002081
:403180007B699A8100BF1837BD4680BD30870208CC82081080B58AB000AFF860B9607A603B607B68002B03D1FD21344800F0B0FA334B1B68002B03D1FE21304800F0A8FA58
:4031C0002F4B1A68FB682C2101FB03F313443B622B4B1A68BB682C2101FB03F31344FB61FB695B68012202FA03F3BB61BB691B04BB613B6A5B68012202FA03F37B613B6A7B
:403200001B69002B32D0FB699B69002B2BD13B6A1B691846FFF7D2FE0346002B20D17B681B689AB27B681A607B681A68BB691A437B681A603B6A1B697A6811461846FFF794
:4032400067FEFB6901229A61FB693A685A623B6A1B6979691846FFF741FE00237B6207E0084B7B6204E0074B7B6201E0064B7B627B6A18462837BD4680BD00BFCC820810C7
:403280003087020807028A0004028A0080B586B000AFF860B9607A60174B1B68002B04D14FF4AF71154800F033FA134B1A68FB682C2101FB03F313443B613B691B6A002B3A
:4032C00004D14FF4B1710D4800F022FA3B69DA697B689A4209D93B691A6A7B689B001344BA681A6000237B6101E0054B7B617B6918461837BD4680BD30870208CC8208100E
:403300000A028A0080B584B000AF786039600C4B1B68002B04D14FF4C8710A4800F0F8F9074B1A687B682C2101FB03F31344FB60FB683A689A6200BF1037BD4680BD00BF37
:4033400030870208CC82081080B584B000AF78600B4B1B68002B04D140F2B111094800F0D7F9074B1A687B682C2101FB03F31344FB60F86800F008F800BF1037BD4680BD1A
:4033800030870208CC82081090B589B000AF78600023FB600023FB617B68002B04D140F2D1114C4800F0B4F97B681B69002B04D14FF4E971474800F0ABF97B685B69002BC3
:4033C00004D140F2D311434800F0A2F97B681B6A002B04D14FF4EA713E4800F099F97B685B691846FFF738FDB861B869FFF7B6FD0346002B3ED07B685C69B869FFF7AEFDBF
:4034000003461A4600212046FFF73EFD7B681B691846FFF78BFD0346002B2BD07B681B6907F10C0211461846FFF7B0FD0346002B1AD1FB681B681B0CFB61FB681B68DBB279
:403440007B617B68DA697B699A420DD97B681A6A7B699B0013441B683B613B69002B03D0FA683B69104698477B681B69F9691846FFF73EFAB869FFF77DFD0346002B1FD022
:403480007B685C69B869FFF775FD0346002219462046FFF7F9FC7B685B6A002B06D07B685B6A98477B6800225A6206E07B689B6A002B02D07B689B6A98477B6800229A613D
:4034C0007B685B691846FFF7D3FC00BF2437BD4690BD00BFCC82081080B584B000AF78600D4B1B68002B04D140F22B210B4800F00FF9094B1A687B682C2101FB03F3134490
:40350000FB60FB68B3F90C301846FFF713FC002318461037BD4680BD30870208CC82081080B584B000AF78600D4B1B68002B04D140F24B210B4800F0EBF8094B1A687B680B
:403540002C2101FB03F31344FB60FB68B3F90C301846FFF7D1FB002318461037BD4680BD30870208CC82081080B483B000AF03463960FB80B7F90630002B0ADB0D49B7F951
:4035800006303A68D2B25201D2B20B4483F800230AE00949FB8803F00F03043B3A68D2B25201D2B20B441A7600BF0C37BD465DF8047B704700E100E000ED00E080B584B085
:4035C00000AF786039600023FB607B68002B1DD07B685B68072B03D93221104800F098F87B68B3F900207B685B6819461046FFF7BBFF0B4B9B680B4A934209D17B68B3F9AD
:4036000000303968184600F011F801E0064BFB60FB6818461037BD4680BD00BF0C83081000ED00E0004002080100560080B584B000AF03463960FB80134B9B68134A9342B1
:4036400016D13B68002B04D140F23711104800F05FF8B7F9063010330C4A52F82330FB60B7F90630103309493A6841F8232006E0B7F906301033074A52F82330FB60FB68DC
:4036800018461037BD4680BD00ED00E0004002080C8308100000081080B582B000AF786008E00C4B1B68184600F0DAF87B68A3F500437B607B68B3F5004FF2D8064B1B686E
:4036C0007A6802FB03F3184600F0CAF800BF0837BD4680BDA8420208A042020880B582B000AF0346FB80FB88054A127802FB03F3184600F0B5F800BF0837BD4680BD00BFA6
:40370000A442020880B483B000AF786001BEFEE780B582B000AF7860396018227968044803F04AFA034A3B6813600020FFF7EAFF684F0208804F020880B584B000AF7860F6
:403740007B681B68414A13607B685B683F4A53607B689B683D4A93607B68DB683B4AD3607B681B69394A13617B685B69374A53617B689B69354A93617B68DB69334AD36159
:40378000334B9B6A314A1362314BDB6A2F4A53622F4B5B6A2D4A93622D4B5B6B2B4AD3622B4B9B6B294A1363F1EE103AFB60FB6803F09003002B43D07B681B6A234A536379
:4037C0007B685B6A214A93637B689B6A1F4AD3637B68DB6A1D4A13647B681B6B1B4A53647B685B6B194A93647B689B6B174AD3647B68DB6B154A13657B681B6C134A5365AB
:403800007B685B6C114A93657B689B6C0F4AD3657B68DB6C0D4A13667B681B6D0B4A53667B685B6D094A93667B689B6D074AD3667B68DB6D054A13677B681B6E034A5367CA
:4038400000F008F800BF1037BD4680BD844F020800ED00E080B400AFFEE700BF000000000230800803D001300238FCD100BF00BF7047EFF3108072B6704780F310887047D4
:4038800080B400AF4FF0B0535B78DBB2002B04D04FF0B0535B78DBB200E021231846BD465DF8047B704700BF80B483B000AF7860044A7B68136000BF0C37BD465DF8047BA8
:4038C000704700BF0095020880B483B000AF786039607B683A68C3F8402200BF0C37BD465DF8047B704700BF80B483B000AF78607B68D3F80832C3F3080318460C37BD4600
:403900005DF8047B704700BF80B483B000AF78607B681B6803F40063002B01D0802300E0402318460C37BD465DF8047B704700BF80B584B000AF786039600023FB607868D8
:40394000FFF7E2FFB86012E000BF7868FFF7CCFF0246BB689A42F8D03A68FB6813441B7819467868FFF7B0FFFB680133FB603A68FB6813441B78002BE6D100BF1037BD4658
:4039800080BD00BF80B483B000AF78607B68D3F8403318460C37BD465DF8047B704700BF80B483B000AF786039607B683A68C3F8402200BF0C37BD465DF8047B704700BF96
:4039C00080B483B000AF78607B68D3F8043243F480327B68C3F804227B68D3F8043223F480327B68C3F804227B68D3F8043200BF0C37BD465DF8047B704700BF80B483B03D
:403A000000AF78607B68D3F8C02F40F66D33134018460C37BD465DF8047B704780B582B000AF786039603B6823F4366323F00D03002B04D040F2F1310648FFF769FE7B682C
:403A40003A68C3F8C02F7B68D3F8C03F00BF0837BD4680BDC084081080B483B000AF78607B68D3F8002F40F21733134018460C37BD465DF8047B704780B582B000AF7860FC
:403A800039603B6823F4457323F00303002B04D040F20C510648FFF73BFE7B683A68C3F8002F7B68D3F8003F00BF0837BD4680BDC084081080B483B000AF78607B68D3F845
:403AC000402F40F6FF13134018460C37BD465DF8047B704780B582B000AF786039603B6823F41F6323F00F03002B04D040F252510548FFF70DFE7B683A68C3F8482F00BF0D
:403B00000837BD4680BD00BFC084081080B483B000AF78607B681B6823F000427B681A607B6800229A667B680022DA667B681B6843F000427B681A607B681B6800BF0C37FB
:403B4000BD465DF8047B704780B582B000AF786039603B68062B02D93B68102B04D940F28D510948FFF7D4FD7B681B6E23F0F0023B68013B1B01DBB21A437B681A6600BF26
:403B80000837BD4680BD00BF0485081080B582B000AF786039603B68042B02D93B68102B04D940F2AA510948FFF7B2FD7B681B6E23F00F023B68013B03F00F031A437B6860
:403BC0001A6600BF0837BD4680BD00BF0485081080B586B000AFF860B9607A60BB681B78012B05D0BB681B7A002B01D0012300E00023FB75FB7D03F00103FB75FB68002BD3
:403C000005D0BB68002B02D07B68002B01D17C4BF1E0BB681B78012B0BD0BB681B78022B07D0BB681B78032B03D050217548FFF76FFDBB685B78002B02D0BB685B7900E08F
:403C40000023002B03D051216E48FFF761FDBB68DB785BB2002B03DA52216A48FFF758FDBB681B7903F00103002B03D053216548FFF74EFDBB681B69102B03D954216148C2
:403C8000FFF746FDBB68DB68102B03D955215D48FFF73EFDBB685B79002B02D04FF4803200E00022BB68DB79002B02D04FF4807300E00023134343F40062FB681A60BB687B
:403CC0009B7983F00103DBB2002B02D04FF4006200E00022BB681B69013B03F00F031A43BB68DB68013B1B01DBB21A43BB681B789B071A43FB681A66FB7D002B02D040F2DC
:403D0000073201E040F20712FB68C3F80023FB7D002B01D03C4A00E03C4AFB681A67BB685B78002B01D07F2200E00022FB68C3F80423BB68DB785B00DAB2BB681B791B048C
:403D400003F47F031A43FB68C3F81023FB68304AC3F80022BB689B78002B01D0402200E00122FB68C3F80422FB680022C3F8C82EFB680022C3F8882EFB680022C3F8C82F24
:403D8000FB680022C3F8882FFB680022C3F8082FBB681B78022B02D040F2D11200E00022FB68C3F8482FBB685A787B681A70BB689A787B685A707B684FF080525A607B685F
:403DC00000229A607B6800229A617B6800221A627B6800221A647B680022DA637B6800221A637B680022DA627B6800225A647B6800229A64002318461837BD4680BD00BF09
:403E00000120AA004485081003002A0013102A000701010080B58CB000AFF860B9607A607B68002B04D140F213218948FFF770FCBB68002B03D0BB68864A934204D94FF463
:403E400005718348FFF764FC0023FB62FB681B6E03F040439B0F012B10D17968F86800F011F9F862FB68D3F8003323F40072FB68C3F80023FB68784A1A67E3E0012387F846
:403E80002B300823FB610823BB610023FB75BB68002B03D0BB686F4A934203D9012387F82B3042E0BB686D4A934213D87B686C4A93423AD97B686B4A934236D841F28833F4
:403EC0007B6241F288333B620023FB75002387F82B302AE0BB68644A934213D87B68634A934222D97B68624A93421ED84FF4C8637B624FF461733B620023FB75002387F841
:403F00002B3012E07B685B4A93420ED97B685A4A93420AD84FF41B737B624FF4BE733B620123FB75002387F82B3097F82B3083F00103DBB2002B00F08580504A7B68B2FB2A
:403F4000F3F33B617A6A3B69B2FBF3F3FB613B69FA6902FB03F27B6A9A4202D2FB690133FB61FB69102B01D91023FB61FB690F2B94BF01230023BB753A6A3B69B2FBF3F37B
:403F8000BB613B69BA6902FB03F23B6A9A4202D2BB690133BB61BB69102B01D91023BB61FA69BB6913447A68B2FBF3F3FB621EE0BB7D002B08D0FB690F2B11D8FB690133D3
:403FC000FB610023BB750BE0BB690F2B08D8BB690133BB61FB690F2B94BF01230023BB75FA69BB6913447A68B2FBF3F3FB62FA6ABB689A4204D9FA69BB6913441F2BD7D945
:40400000FB7D002B0BD0FB68D3F8003343F40072FB68C3F80023FB68194A1A670AE0FB68D3F8003323F40072FB68C3F80023FB68094A1A67F969F868FFF786FDB969F86867
:40404000FFF7A4FDFB6A18463037BD4680BD00BF4485081040420F0013102A00A0860100AFA6170000D43000801A0600DF527700809698007F81DA0040AD890100CA9A3B44
:4040800003002A0080B584B000AF786039603B68002B04D14FF431712448FFF739FB0023FB607B681B6E03F040439B0F012B23D13B681F4A934206D93B681E4A934202D888
:4040C0001D4BFB602CE03B681C4A934206D93B681B4A934202D81B4BFB6021E03B681A4A934206D93B68194A934202D8184BFB6016E00023FB6013E03B68002B10D07B6895
:404100001B6E03F0F0031A097B681B6E03F00F0313440233BB603A68BB68B2FBF3F3FB60FB6818461037BD4680BD00BF44850810DF52770020AEEA00801A0600AFA61700CE
:404140000050C300A0860100FFB2F10040084E0540420F0080B588B000AFF860B9603B601346FB71BB6803F08003002B04D040F2C9613C48FFF7CCFA3B683B4A934204D93C
:4041800040F2CA613748FFF7C3FAFB79002B07D0FB79012B04D040F2CB613248FFF7B8FA324BFB610021F868FFF794FCBB6A5B68B3F1805F4BD13B684FF47A7202FB03F3DA
:4041C0007B61BB6A2A4A5A60FB79012B0CBF01230023DAB2BB6A5A7340F21711F868FFF74BFC0421F868FFF719FCF868FFF7E8FBBB685B00DAB2FB7913431946F868FFF717
:40420000CFFBFB6802229A66F868FFF725FC024640F207131340BB61F868FFF74BFC034603F0C003BA691343BB6107F11403184600F0C2F90246BB691343BB61BB69002B3D
:40424000E2D0BA6AB969F86800F0D4F9F86140F2D111F868FFF73EFCFB6918462037BD4680BD00BF44850810378941000220AA000000131080B588B000AFF860B9603B601B
:404280001346FB71BB6803F08003002B04D040F22A713F48FFF73CFA3B683E4A934204D940F22B713A48FFF733FAFB79002B07D0FB79012B04D040F22C713548FFF728FA83
:4042C000354BFB61BB6A5B6803F48013002B59D00023BB613B684FF47A7202FB03F37B61BB6A2E4A5A60FB79012B0CBF01230023DAB2BB6A5A73FB685B6E03F02003002B48
:4043000001D0092200E00122FB689A66FB685B6E03F02003002B0FD105E007F11403184600F04AF9B861BB69002B05D1FB689B6E03F00103002BF0D1BB69002B1CD1BB685D
:404340005B00DAB2FB7913431946F868FFF728FBF868FFF781FB024640F207131340BB6107F11403184600F027F90246BB691343BB61BB69002BEBD0BA6AB969F86800F0E4
:4043800039F9F861FB6918462037BD4680BD00BF44850810378941000220AA000000131080B588B000AFF860B9607A60BB681C4A934204D940F28D711A48FFF7A9F91A4B58
:4043C000FB617B685B6803F48013002B22D0BB684FF47A7202FB03F37B61FB6818229A66F868FFF739FB024640F211131340BB6107F11403184600F0DFF80246BB691343C9
:40440000BB61BB69002BEBD07A68B969F86800F0F1F8F861FB6918462037BD4680BD00BF37894100448508100220AA0080B588B000AFF8607A603B600B46FB727B68002B45
:4044400004D140F2D9713548FFF762F93B68344A934204D940F2DA713048FFF759F9FB7A002B07D0FB7A012B04D040F2DB712B48FFF74EF92B4BFB61BB6A5B68B3F5881FEA
:4044800047D13B684FF47A7202FB03F33B61F868FFF7B4FA034603F00403002B14BF01230023FB76F868FFF7D7FA024640F2011313407B6107F11003184600F07DF802468C
:4044C0007B6913437B61FB7E83F00103DBB2002B02D07B69002BDAD0FB7E002B0AD0F868FFF750FA0346DAB27B681A700521F868FFF794FABA6A7969F86800F07BF8F861E7
:40450000FB69002B05D1FB7A002B02D1FB6804229A66FB6918462037BD4680BD44850810378941000220AA0080B588B000AFF8607A603B600B46FB727B681C4A934204D971
:4045400040F633011A48FFF7E3F81A4BFB613B685B68B3F5A01F24D17B684FF47A7202FB03F37B61FB7A1946F868FFF719FAF868FFF772FA024640F207131340BB6107F140
:404580001403184600F018F80246BB691343BB61BB69002BEBD03A68B969F86800F02AF8F861FB6918462037BD4680BD37894100448508100220AA0080B584B000AF786018
:4045C0000023FB607B681B68002B0ED00120FFF785F87B681B685A1E7B681A607B681B68002B02D14FF00043FB60FB6818461037BD4680BD80B586B000AFF860B9607A6011
:404600000023FB74BB68002B04DA3D4B7B610123FB7460E0BB6803F0C003002B09D0394B7B61FB6800229A667B684FF080525A6051E0BB6803F48073002B04D0324B7B617F
:404640000123FB7447E0BB6803F00103002B17D02E4B7B617B685B682D4A93420DD1FB681B6E03F08043002B0CBF01230023FB747B684FF080525A602DE00123FB742AE089
:40468000BB6803F00203002B09D07B685B68204A934201D11F4B00E01F4B7B611BE000237B61BB6803F01003002B04D07B684FF080525A600FE07B685B68154A93420AD120
:4046C0007B685B7B002B02D04FF4881201E04FF4A0127B685A60FB7C002B07D0F868FFF715FA7B684FF080525A6004E040F21711F868FFF7C1F97B6918461837BD4680BD09
:404700000320AA000820AA000720AA000620AA00000013100420AA000520AA0080B483B000AF78607B681B6803F40063002B01D0802300E0402318460C37BD465DF8047B71
:40474000704700BF90B587B000AFF860B9607A60FB68002B02D0BB68002B01D18A4B58E2BB681B78002B0BD0BB681B78012B07D0BB681B78022B03D03F218448FEF7C8FFAB
:40478000BB685B7B022B1BD0BB685B7B032B17D0BB685B7B042B13D0BB685B7B052B0FD0BB685B7B062B0BD0BB685B7B072B07D0BB685B7B082B03D040217448FEF7A8FF08
:4047C000BB689B7B002B0BD0BB689B7B022B07D0BB689B7B032B03D041216C48FEF798FFBB6893F82130002B08D0BB6893F82130012B03D042216548FEF78AFFBB6893F825
:404800002830002B08D0BB6893F82830012B03D043215E48FEF77CFFBB681B78002B03D0BB681B78012B0ED1BB685B68072B03D9BB685B68102B01D9012300E0002303F020
:404840000103DBB227E0BB689B7F002B22D0BB685B68012B19D0BB685B68022B15D0BB685B68032B11D0BB685B68042B0DD0BB685B68052B09D0BB685B68062B05D0BB686E
:404880005B68072B01D0012300E0002303F00103DBB200E00023002B03D045213B48FEF737FFBB689B68042B03D9BB689B68092B03D946213548FEF72BFFBB685B69FF2BF7
:4048C00003D947213148FEF723FFBB689B69FF2B03D948212D48FEF71BFFBB689B7C002B12D0BB681B78002B07D1BB689B68092B03D1BB689B7B002B01D0012300E0002340
:4049000003F00103DBB200E00023002B03D04A211E48FEF7FDFEBB685B6B23F4366323F00D03002B03D04C211848FEF7F1FEBB68DB6B23F4EE6323F00303002B03D04D2170
:404940001248FEF7E5FEBB681B78022B09D1BB689B7F83F00103DBB2002B02D000237B6103E0BB685B68013B7B61BB681B7F002B02D04FF4803200E00022BB689B68082B20
:4049800006D84FF4006304E00160AA000886081000231A437B6903F00F03134343F00072FB681A60BB681C6BF868FFF7B7FE03469C4203D362219948FEF7AAFEBB689C6BC0
:4049C000F868FFF7ABFE03469C4203D363219348FEF79EFEBB685C6AF868FFF79FFE03469C4203D364218D48FEF792FEBB681B781B0603F04072FB681A64BB685B7F002B8E
:404A000001D0402200E00022BB689B7C002B02D04FF4806300E000231A43BB681B7C002B02D04FF4807300E000231A43BB685B7C002B02D04FF4007300E000231A43BB6807
:404A4000DB6A013B1B0403F470231A43BB685B7B013B03F007031A43BB689B7B1B0103F030031A43FB689A64BB681B7B002B02D04FF4807200E00022BB68DB7B002B03D182
:404A8000BB681B78022B01D1012300E00023002B02D04FF4007300E000231A43BB689B68013B03F00F031A43FB68C3F80023BB685B69DAB2BB689B691B0403F47F031A4373
:404AC000FB68C3F81023BB68DA6AFB68D3F8003303F00F0303339A4203D3BB68DB6A102B03D97A214D48FEF713FEBB68DB7F002B05D0BB681B78012B01D1012300E00023A3
:404B0000002B02D04FF4807200E00022BB685B7B013B03F007031A43BB689B7B1B0103F030031A43FB685A64BB681B7B002B02D04FF4807200E00022BB689B68013B03F077
:404B40000F031A43BB681B78012B02D14FF4803300E000231A43FB68C3F80022BB681B6BDAB2FB68C3F80423BB6893F82030002B02D04FF0007200E00022BB6893F8213054
:404B8000012B02D14FF0807300E000231A43BB6893F82830012B02D14FF4803300E000231A43BB685B6ADBB21A43FB681A65BB689B6BDAB2FB68C3F80422BB685A6B40F63E
:404BC0006D331340FA68C2F8C83FBB68DA6B40F273731340FA68C2F8883F7B68002B17D07B6800225A607B6800221A607B6800229A607B680022DA607B6800221A627B6814
:404C00000022DA627B6800221A637B68044A5A63002318461C37BD4690BD00BF08860810EFCDAB0080B487B000AFF860B9607A60644B7B61FB68002B00F0BD807B68002BFD
:404C400000F0B9807B685B681B029AB27B689B689B0403F480231A437B68DB681B0403F440331A437B681B691B0603F0E0631A437B681B7F002B01D0012300E000231A435C
:404C8000F968BB6804339B010B441A607B68DB68002B08D1FA68BB689B01134403F5847300221A6015E07B68DB68012B09D17B681A68F968BB689B010B4403F584731A6049
:404CC00007E0FA68BB689B01134403F5847301221A607B681B69002B11D17B685A69F968BB689B010B4403F586731A607B689A69F968BB689B010B4403F588731A607B6830
:404D00001A68F968BB689B010B4403F58A731A607B689B6CB3F1FF3F20D07B689B6A03F00F027B681B6B1B0203F470631A437B689B6B1B0403F470231A437B681B6C1B0347
:404D40009BB21A437B689B6C1B01DBB21A43F968BB689B010B4403F590731A607B685B6A03F003027B68DB6A1B0103F030031A437B685B6B1B0203F440731A437B68DB6B58
:404D80009B01DBB21A437B685B6C9B0003F00C031A43F968BB689B010B4403F592731A607B681A6AF968BB689B010B4403F59C731A6000237B617B6918461C37BD465DF8A0
:404DC000047B70470100B60080B483B000AF0346FB71044AFB79137000BF0C37BD465DF8047B70471195020880B400AF00BFBD465DF8047B704700BF80B584B000AF786097
:404E00000023FB607B68002B02D1154BFB6022E0144A7B681360134B1B68DB6A002B04D0104B1B68DB6A104A1360104B00221A70012200210E4801F019FE0E4B00221A60EF
:404E40000D4B00221A7000F0B7FA0C4B00221A700B4B00221A70FB6818461037BD4680BD01001600788702087087020820950208249502082895020825950208079502086C
:404E80000C950208F0B59DB000AF0023FB664C4B07F158041D4628686968AA68EB680FC42869206007F10C034C220021184601F0DDFD444BFB6007F158037B6142F2A42357
:404EC0003B830523BB76404B1B681B69FB6140F2AA333B62FB23BB84FB23FB84032387F82830042387F82930062387F82A30042387F82C30102387F82D305923A7F850305D
:404F0000012387F85430FB6E002B0AD104F0D4FA04F0D4FA07F10C031833184604F01AFBF866FB6E002B45D1284B3B61264B1B689B6B002B19D0244B1B689B6B07F12E005B
:404F400003F1200402461946D1F800E04E688D68C968C2F800E056609560D16010331030A342EFD102461B88138007F10C03184604F0B8FAF866FB6E002B18D1144B012269
:404F80001A70144B00221A700020FFF71DFF0E4B1B681B6A7B600C4B1B689B6ADB883B810F237B813B1D18460DF0B8F8F8660A4B00221A60FB6E18467437BD46F0BD00BF2F
:404FC000488608101D5C081078870208FC4F020808950208109502082895020880B582B000AF7860396000223968786800F006F8034618460837BD4680BD00BF80B5C6B017
:4050000000AF07F10C03186007F108031960FB1D1A7007F114031A4A184611464FF480731A4601F018FDFB1D1B7887F817311BE007F10C031B681A7897F817315340DBB2E0
:405040001A4607F114039B5C87F8173107F10C0307F10C02126801321A6007F1080307F108021268013A1A6007F108031B68002BDED197F81731184607F58C77BD4680BDC7
:405080009886081080B500AFFEF7F3FB0346184680BD00BF80B582B000AF78607868FEF7ECFB00BF0837BD4680BD00BF80B500AF0120FEF735FA00BF80BD00BF80B500AFE1
:4050C0000120FEF709FA00BF80BD00BF80B582B000AF7860074B1B6878689847064B1B68002B02D0044B1B68984700BF0837BD4680BD00BF848702087487020880B582B05A
:4051000000AF78607B68002B03D0074B1B6878689847064B1B68002B02D0044B1B68984700BF0837BD4680BD808702087487020880B584B000AF786039600D4A7B68136067
:405140000C4A3B68136001220B490120FEF79EF8F860FB68002B05D1002208490120FEF795F8F860FB6818461037BD4680BD00BF8087020884870208FD500810CD500810AF
:4051800080B586B000AFF860B9607A60BB68FA6801210020FDF7FEFF78617B69002B03D079680120FEF7AEF87B6918461837BD4680BD00BF80B483B000AF78600B46FB7040
:4051C00000BF0C37BD465DF8047B704780B400AF00BFBD465DF8047B704700BF80B483B000AF0346FB71002318460C37BD465DF8047B704780B483B000AF7860034B184679
:405200000C37BD465DF8047B704700BF1100160080B483B000AF7860034B18460C37BD465DF8047B704700BF1100160080B483B000AF7860034B18460C37BD465DF8047BB2
:40524000704700BF1100160080B483B000AF7860034B18460C37BD465DF8047B704700BF1100160080B483B000AF7860034B18460C37BD465DF8047B704700BF11001600EF
:4052800080B483B000AF7860034B18460C37BD465DF8047B704700BF1100160080B483B000AF7860034B18460C37BD465DF8047B704700BF1100160080B483B000AF78605E
:4052C000034B18460C37BD465DF8047B704700BF1100160080B483B000AF7860034B18460C37BD465DF8047B704700BF1100160080B483B000AF0346FB71034B18460C3740
:40530000BD465DF8047B70471100160080B483B000AF78603960034B18460C37BD465DF8047B70471100160080B483B000AF0346FB7100BF0C37BD465DF8047B704700BF73
:4053400080B400AF034B1B781846BD465DF8047B704700BF1195020880B483B000AF0346FB71044AFB79137000BF0C37BD465DF8047B70471195020880B483B000AF002385
:40538000FB7000237B600BE00A4A7B6813441B78012B02D9FB780133FB707B6801337B607B68002BF0D0FB7818460C37BD465DF8047B70471095020880B500AF064801F02B
:4053C00009F8064801F0EAF8054801F017F9054801F070F900BF80BD94440208904402089C440208A444020880B584B000AF03460A46FB711346BB71FB79022B02D8BB79AD
:40540000002B02D0684BFB60C8E0FFF7B5FF0346012B1CD1654B1B681968BA7913469B0013449B000B445B681B79012B0CD95F4B1B681968BA7913469B0013449B000B4413
:405440005B681B79032B02D9594BFB60A6E0FFF777FF0346002B40F09F80564ABB791370FB79002B3ED1514B1B681968BA7913469B0013449B0019444C4B1B685868BA79F0
:405480001346DB009B1A5B0003449B880B82474B1B681968BA7913469B0013449B000B445968424B1B685868BA791346DB009B1A5B0003441B880B803C4B1B681968BA7978
:4054C00013469B0013449B000B445968374B1B685868BA791346DB009B1A5B0003445B884B8040E0FB79012B3DD1304B1B681968BA7913469B0013449B0019442B4B1B68C9
:405500005868BA791346DB009B1A5B0003449B890B82264B1B681968BA7913469B0013449B000B445968214B1B685868BA791346DB009B1A5B0003441B890B801B4B1B6819
:405540001968BA7913469B0013449B000B445968164B1B685868BA791346DB009B1A5B0003445B894B80144AFB7913700F4B1B681A68104B1B7819460B469B000B449B0099
:405580001344184608F05EFBF860FB68002B05D10120FFF7E1FE01E0084BFB60FB6818461037BD4680BD00BF0100160078870208020016000695020825950208FF001600E7
:4055C00080B48BB000AF78600B46FB7000237B6100233B620023FB61FB78002B17D13E4B1B6819687A6913469B0013449B000B449B683B61384B1B6819687A6913469B0093
:4056000013449B000B449B68DB7FBB612FE0324B1B6819687A6913469B0013449B000B44DB683B612C4B1B6819687A6913469B0013449B000B44DB68DB7FBB6117E03A6943
:40564000FB6913441B78FB60FB68002B17D0FB690133FB613A69FB6913441B781B2B02D101233B6203E0FA69FB681344FB61FA69BB699A4204D23B6A002BE0D000E000BF99
:405680003B6A002B1CD0FB690133FB613A69FB6913447A6892791A7000237B620DE0FA697B6A134401333A69134479687A6A0A4412781A707B6A01337B627B6A052BEED9B2
:4056C0007B6901337B617B69002B81D000BF2C37BD465DF8047B70477887020880B483B000AF78607B681B789AB27B6801331B789BB21B029BB213439BB218460C37BD4645
:405700005DF8047B704700BF80B588B000AF78600023FB777B681A891F4B1B685B699B889A4234D17A6807F1080307CA83E807000023BB827B689B89FB8240233B7607F143
:405740000803184600F032F80346FB77FB7F002B15D17B681B681846FFF7C0FF034603F002039BB2002B05D00C4B1B6879680C48984704E0094B1B6879680A4898470A4B49
:405780001B78DBB223F00103DAB2074B1A70FB7F18462037BD4680BD788702087087020805000100060001002095020880B584B000AF786078680CF0CBFC0346FB73FB7B45
:4057C000002B41D1234B1B681A6A7B681B8919460B469B000B449B00143B13445B6803F00073002B30D07B68DB7B1946194B1B681A6A7B681B89184603469B0003449B0093
:40580000143B13441B695B681A46124B1B68DB69D21A0B46DB000B4413440F4A98187B6819687B689B881A4601F015F97B68DB7B1A460A4B9B5C012B06D1094B1B7843F065
:405840000203DAB2064B1A70FB7B18461037BD4680BD00BF78870208149502080C9502080795020890B585B000AF78600023FB737B685B88002B07D07B685B88342B03D83B
:405880007B685B78002B02D00123FB733FE0224B1B681A6A7B685B8819460B469B000B449B00143B13445B6803F00073002B2ED0194B1B681A6A7B685B8819460B469B00A1
:4058C0000B449B00143B13441B695C687B685B781946114B1B681A6A7B685B88184603469B0003449B00143B13441B695B681A46094B1B68DB69D21A0B46DB000B44134448
:40590000064A134402221946204601F0A4F8FB7B18461437BD4690BD788702081495020880B400AF034B1B781846BD465DF8047B704700BF1195020880B483B000AF0346A1
:40594000FB71044AFB79137000BF0C37BD465DF8047B70471195020880B483B000AFB8807B79002B04D17B791A46054B9B5C00E0002318460C37BD465DF8047B704700BF68
:405980001095020880B582B000AFB8800B46FB707B79002B05D17B791946084AFB78535407E07B79002B04D140F286310448FDF7AFFE00BF0837BD4680BD00BF109502081D
:4059C0009887081080B586B000AF0346FB71244A07F10C0312881A8000237B6125E0214A7B6912F813105B0013445B781B0243EA0102002362F30F031846FFF7ADFF0346D3
:405A0000012B0FD9174A7B6912F81330FA799A4208D114497B6907F10C025B000B441B88138005E07B6901337B617B69002BD6D07B7BFF2B07D17B7BFF2B04D140F2CA31C9
:405A40000948FDF765FEBB893B8200233A7C62F307037A7C62F30F2318461837BD4680BDD0870810049502089887081080B487B000AF786000237B610023FB747B68002B01
:405A800002D11E4B7B6117E00023FB600BE01C4AFB6852F823207B689A4201D10123FB74FB680133FB60164B1B7C1A46FB689A4202D9FB7C002BEAD07B69002B16D1FB7CC7
:405AC000002B13D10E4B1B7C032B0DD80C4B1B7C19460B4A7B6842F82130094B1B7C0133DAB2074B1A7401E0064B7B617B6918461C37BD465DF8047B704700BF01001600F2
:405B00002C9502080300160080B584B000AF786039600023FB720023FB600BE00E4AFB6852F823303968786898470346FB72FB680133FB60084B1B7C1A46FB689A4206D937
:405B4000064B1B78DBB203F00103002BE6D1FB7A18461037BD4680BD2C9502082095020880B584B000AF78600B46FB7007F1080300221A609A807B689B893B817B681B8948
:405B80007B8112233B730D4B1B78DBB203F00103002B0ED1FB78002B07D0FB787B7307F1080318460BF0F0FB03E07B68D8680BF019FC00BF1037BD4680BD00BF2095020896
:405BC00080B483B000AF786000BF0C37BD465DF8047B704780B485B000AF78600023FB737B689B79002B11D10023BB600BE07A68BB6813441B78002B02D00123FB7305E016
:405C0000BB680133BB60BB68052BF0D9FB7B18461437BD465DF8047B704700BF80B592B000AF03463960FB80C64B1B78DBB243F00103DAB2C34B1A70FB8844F207029342C4
:405C400000F0E38144F20702934249DC42F20402934200F0378142F2040293421DDC41F20202934200F07C8141F20202934209DCB3F5805F00F08E8041F20102934200F06E
:405C8000578172E341F20302934200F0788141F20402934200F0568367E343F2190293426FD043F2190293420ADC43F20102934200F0F18043F21202934200F0EC8054E312
:405CC00044F20402934200F07A8144F20602934200F0C08144F20102934200F03B8344E345F20C02934200F0BF8245F20C02934223DC44F21002934200F0878144F21002C0
:405D000093420ADC44F20802934200F09F8144F20A02934200F0738127E345F20202934200F0608245F20302934200F0738245F20102934200F0ED8117E345F21002934221
:405D400000F0EB8245F2100293420ADC45F20E02934200F0D68245F20F02934200F0D78203E345F21702934200F0E38246F20102934200F0C88145F21402934200F0D382E8
:405D8000F3E2704B1B78DBB223F00103DAB26D4B1A70EAE26C4B1B681846FFF71BFF0346002B11D0684B1B68184609F04FF8664B1B6800211846FFF703FC634B1B680121B6
:405DC0001846FFF7FDFB50E0604B1B689B6A1B79002B36D04FF0B05393F80436DBB203F03F024FF0B05393F80536DBB203F03F039B011A434FF0B05393F80336DBB203F01E
:405E00001F031B031A434FF0B05393F80036DBB203F07F035B0413433B644C4B1B681B6B3A6CD2B21A70494B1B681B6B3A6C120AD2B25A70454B1B681B6B3A6C120CD2B28A
:405E40009A70424B1B681B6B184608F0FFFF3F4B1B681B6B00211846FFF7B2FB3B4B1B681B6B01211846FFF7ABFB384B1B689B6A0233184609F0F6FA354A07F1280310682D
:405E8000516803C307F12803184609F003F8314B02221A7069E22F4B00221A700020FFF74BFD012200212C4800F0E0FD0A20FDF7F3FBFB8843F21202934240F04D82FEF7CF
:405EC00093FF49E2254B1B6803F00103002B40F0458207F1240300210A461A800A469A701A4B1B689B6A93F9003087F82430002387F8253007F12403184608F0E5FF134B2B
:405F00001B689B6A93F9013087F82430012387F82530FF2387F8263007F12403184608F0D3FF0E4B1B6843F001030C4A136015E23868FFF745FEFB8839681846FFF7E4FD0E
:405F400013E200BF20950208AC42020878870208D4870810089502088C870208289502083B685B781846FFF72DFD03463B8697F831301A463B681978AC4B9954F5E13B68D0
:405F8000FB63FB6B1B78002B40F0EA81FB6B1B7A002B0BD1A64B0022DA80A54B00229A80A34BA44A1A60FB6BA14A5A60A24B1B78DBB223F00103DAB29F4B1A70D0E13B6850
:405FC0005B791846FFF7FEFC03463B8497F821301A463B685978994B99543B68DB78002B40F0C0813B685B791846FFF7EBFC0346BB837B7F1A46924B01219954B2E1FB88CB
:4060000039681846FFF780FDAFE13B68BB63BB6B1B78002B16D1BB6B9B78012B02D10020FFF78AFCBB6B5B781846FFF7CBFC03463B837B7EFF2B05D07B7E1A46BB6B99785B
:40604000804B9954804B02221A708EE17E4B02221A708AE1FB8839681846FFF755FD764B1B78DBB203F00103002B00F07D81FFF757FC0346012B03D10220FFF75DFC73E18C
:40608000FFF74EFC0346032B03D10020FFF754FC6AE1FFF745FC0346022B40F065810020FFF74AFC694B1B685A68694B1B7819460B46DB005B1A5B0013449B79002B00F064
:4060C0005381624B1B685A68614B1B7819460B46DB005B1A5B0013449B88002B00F044815C4B1B78002B40F03F81594B1B7819460120FFF779F90346002B40F035810120F7
:40610000FFF71AFC30E1FB8839681846FFF7FCFC2BE13B681A785B781B021A43002362F30F0302211846FFF72DFC3B685B784A4A39685B0013440A4612881A803B685B78C3
:406140001A463A4B002199543B685B781A461346DB001344414A98183C4B1B681A693B681B7819460B46DB000B4403F56A73134402330922194600F06EFC3B685B781A46D8
:406180001346DB001344354A134408211846FEF725FF034687F837303B685B7819462F4A0B46DB000B44134408331B7897F837209A4211D02A4B1B6800212A4898473B6811
:4061C0005B781A461346DB001344244A134409220021184600F04AFCFB8839681846FFF793FCC2E03B681A785B781B021A43002362F30F0300211846FFF7C4FB3B685B78DD
:406200001A460F4B00219954FB8839681846FFF77BFCAAE03B681B88BB821A23FB8207F1140318460BF0BCF89FE000BF2495020898870208A0720208209502080C95020814
:406240008C8702088887020808950208788702080695020825950208049502081495020870870208040001003868FFF74DFA034687F8473097F84730002B07D1FB8839682A
:406280001846FFF741FC034687F8473097F8473019463868FFF764FC404B1B78DBB203F01103002B05D03E4B1B68FA883968104698473B681B89BB86384B1B78DBB203F07F
:4062C0000103002B14D0BB8E342B02D8BB8E002B0ED112233B743B681B89FB813B689B89BB8101237B7407F10C0318460BF04CF82A4B1B78DBB223F00103DAB2274B1A7021
:4063000033E0FB8839681846FFF7FEFB2DE0FB8839681846FFF7F8FB27E0FB8839681846FFF7F2FB21E0FB8839681846FFF7ECFB1BE03868FFF796FAFB8839681846FFF7FC
:40634000E3FB12E0174B1B7843F00103DAB2154B1A700AE000BF08E000BF06E000BF04E000BF02E000BF00E000BF0C4B1B78DBB203F01103002B0DD0084B1B78DBB223F0C7
:406380000103DAB2054B1A70054B1B68FA8839681046984700BF4837BD4680BD20950208708702080795020880B483B000AF78607B681B789AB27B6801331B789BB21B02A0
:4063C0009BB213439BB218460C37BD465DF8047B704700BF80B584B000AF78607B68002B02D10C4BFB6010E00B4A7B6813600B48FFF73CFBF860084B1B685B68002B04D031
:40640000054B1B685B68064A1360FB6818461037BD4680BD01001600A88702085D650810A487020880B58AB000AF7860002387F82730002387F8263007F11C0300221A60C2
:406440005A607B689B89BB833E4B1B68002B72D07B681A893C4B1B68196897F82730DB000B44DB889A425DD1384B1B681A6A364B1B68196897F82730DB000B445B881946B5
:406480000B469B000B449B00143B13445B6803F48013002B3AD07A6807F1080307CA83E807000023BB827B689B89FB8240233B7607F108031846FFF779F9034687F82630D7
:4064C00097F82630002B24D197F82730BB770023FB7700233B627B681B681846FFF764FF034603F001039BB2002B07D0154B1B6807F11C021146164898470AE0114B1B6828
:4065000007F11C0211461348984702E0062387F82630114B1B78DBB223F00103DAB20E4B1A7008E097F82730013387F8273097F82730002B8CD097F8263018462837BD46E8
:4065400080BD00BFA4870208A88702087887020832000100330001002095020880B584B000AF786039600023FB737B68B3F5803F01D300BF0CE07B689BB245F20C02934255
:4065800000D005E03868FFF74DFF0346FB7300BFFB7B18461037BD4680BD00BF80B584B000AF78607B68002B02D1074BFB6006E0064A7B6813600648FFF758FAF860FB6859
:4065C00018461037BD4680BD01001600AC870208D565081080B483B000AF786039607B68B3F5803F01D300BF00E000BF002318460C37BD465DF8047B704700BF80B584B093
:4066000000AF78607B68002B02D1074BFB6006E0064A7B6813600648FFF728FAF860FB6818461037BD4680BD01001600B08702083566081080B483B000AF786039607B683E
:40664000B3F5803F01D300BF00E000BF002318460C37BD465DF8047B704700BF80B483B000AFB8807B79002B04D17B791A46054B9B5C00E0002318460C37BD465DF8047B18
:40668000704700BF1095020880B483B000AF78607B681B789AB27B6801331B789BB21B029BB213439BB218460C37BD465DF8047B704700BF80B584B000AF78607B68002B15
:4066C00002D10C4BFB6010E00B4A7B6813600B48FFF7CCF9F860084B1B685B68002B04D0054B1B685B68064A1360FB6818461037BD4680BD01001600B88702089D6908105D
:40670000B487020880B588B000AF03463A60FB710B46BB710023FB61FB79022B02D91A4BFB612BE0FB79012B09D1184B1B681B689B88002B03D14FF01613FB611EE007F1A6
:40674000080300221A605A609A60DA601A613B68BB60BB799BB2BB810C4B1B681A68FB795B0013445B883B8207F108031846FFF71DF80346002B01D0034BFB61FB6918464F
:406780002037BD4680BD00BF01001600B887020880B58AB000AFB8817B600B46FB721346BB72F868FFF75AFF0346012B02D82C4B7B6250E0FB7A022B02D92A4B7B624AE032
:4067C000294B1B681B681B89002B25D07B7B1946264B1B681A6A244B1B681B681B89184603469B0003449B00143B13441B695B681A461E4B1B68DB69D21A0B46DB000B446D
:4068000013441B4A13441846FFF73EFF034603F001039BB2002B02D1164B7B621BE007F1140300221A605A609A60DA607B687B61BB7A9BB23B830C4B1B681A68FB7A5B002C
:4068400013445B88BB83BB893B8407F1140318460AF0BAFD78627B6A18462837BD4680BDFF00160001001600B887020878870208149502081700160080B58CB000AF78606D
:406880000023FB62002387F82B307B689B893B8400237B627B681A89394B1B681B681B899A421BD1002387F822307B681B681846FFF7EAFE034603F001039BB2002B02D0F9
:4068C000304BFB6201E0304BFB62304B1B78DBB223F00103DAB22D4B1A701DE07B681A89274B1B681B68DB889A4215D1022387F822307B681B681B78012B02D1244BFB62ED
:4069000002E0802387F82B30204B1B78DBB223F00103DAB21D4B1A70FB6A002B2AD07A6807F10C0307CA83E8070000233B837B689B897B8340233B7707F10C031846FEF7CD
:4069400035FF034687F82B3097F82B30002B11D1104B1B68002B07D00E4B1B6807F120021146F86A984705E00B4B1B68796845F20C00984797F82B3018463037BD4680BDAB
:40698000B8870208AC000100AD00010020950208AB000100B48702087087020880B584B000AF786039600023FB737B68B3F5803F01D300BF0CE07B689BB245F20C02934255
:4069C00000D005E03868FFF757FF0346FB7300BFFB7B18461037BD4680BD00BF80B584B000AF78600023FB607B68002B03D00F4A7B68D36201E00E4BFB60FB68002B10D1A2
:406A00000C4B1B78002B06D10848FEF7F5F9F860084B01221A70FB68002B02D1FEF732FAF860FB6818461037BD4680BD5444020801001600BC87020810B5013902449042A0
:406A400007D010F8013B11F8014FA342F7D0181B10BD002010BD10B5431E0A44914204D011F8014B03F8014FF8E710BD02440346934202D003F8011BFAE770470FB40A4BA5
:406A800013B51C6824B1A36913B9204600F05CFA05AB049AA1680193204600F063FD02B0BDE8104004B07047D446020870B50E46054618B183690BB900F046FAAB69AC68C5
:406AC00013B9284600F040FA224B9C4201D16C6808E0214B9C4201D1AC6803E01F4B9C4208BFEC68A3891B0701D523693BB92146284600F0C9F810B14FF0FF3070BD013E1E
:406B0000A36816F8011F013BA36091B1002B04DAA269934206DB0A2904D023685A1C22601970EDE72246284600F05AF80130E7D1E2E7002B08DA22460A21284600F050F8DA
:406B40000130D9D00A2070BD23680A205A1C2260187070BDBC910810DC910810FC910810024B01461868FFF7A1BF00BFD44602080EB400B59CB04FF402711DABADF814109C
:406B8000029006906FF000410A48049107914FF6FF7153F8042BADF816100068019302A900F0C2FB029B00221A701CB05DF804EB03B07047D446020810B5034642B111F84F
:406BC000014B03F8014B013A002CF7D11A4400E010BD934202D003F8014BFAE710BD0000F8B50F461446064618B183690BB900F0ABF9224B9C4201D1746808E0204B9C424D
:406C000001D1B46803E01F4B9C4208BFF468A369A360A3891A0709D523693BB123682069181A63699842FDB20FDB08E02146304600F02AF80028F1D04FF0FF30F8BD214697
:406C4000304600F017F90028F6D1A368013BA36023685A1C22601F706269431C934204D0A389DB0707D50A2D05D12146304600F001F90028E0D12846F8BD00BFBC910810A2
:406C8000DC910810FC910810324B70B51D6806460C4625B1AB6913B9284600F055F92E4B9C4201D16C6808E02C4B9C4201D1AC6803E02B4B9C4208BFEC68B4F90C309AB2DC
:406CC00015071DD4D00602D4092232603AE0510712D5616B41B104F14403994202D0304600F01CFA00236363A38923F02403A3810023636023692360A38943F00803A381AC
:406D000023694BB9A38903F42073B3F5007F03D02146304600F0C6F9A28912F0010305D00023A36063695B42A36103E0920758BF6369A36023695BB9B4F90C3003F0800090
:406D400080B230B143F04003A3814FF0FF3070BD002070BDD4460208BC910810DC910810FC9108108A892DE9F041054610070C4659D44B68002B02DC0B6C002B17DDE66AEE
:406D8000AEB102F48052002392B22F682B600AB1606D15E0216A01232846B047411C0FD12B686BB11D2B01D0162B03D12F600020BDE8F081A38943F04003A381BDE8F081D7
:406DC000A3895A0705D56368C01A636B0BB1236CC01A00230246E66A216A2846B047431CA38906D129681D293AD8214ACA40D60736D500226260D9042269226004D5421C3C
:406E000001D12B6803B96065616B2F600029CED004F14403994202D0284600F07FF900206063BDE8F0810F69002FC0D093070E6808BF4B690F6018BF0023C7EB06088B60BC
:406E400002E00744C0EB0808B8F1000FAFDD43463A46216AA66A2846B0470028F1DCA38943F04003A3814FF0FF30BDE8F08100BF0100402038B50B6905460C46DBB118B12B
:406E800083690BB900F060F80C4B9C4201D16C6808E00B4B9C4201D1AC6803E0094B9C4208BFEC68B4F90C302BB121462846BDE83840FFF757BF002038BD00BFBC910810D1
:406EC000DC910810FC910810014900F0A9B800BF756E0810002310B5044603604360836081814366C281036143618361194608225C30FFF7BBFD054B6362054BA362054BA1
:406F0000E362054B2462236310BD00BFF57A0810177B08104F7B0810737B081070B568234D1E5D430E4605F1740100F045F9044640B1002180E842000C30A06005F16802C1
:406F4000FFF794FD204670BD836910B5044633BB8364C3640365124B124A1B688262984204BF0123836100F01FF86060204600F01BF8A060204600F017F80022E0600421B7
:406F80006068FFF7A7FF01220921A068FFF7A2FF02221221E068FFF79DFF0123A36110BDB8910810C96E0810F8B51C4B1E68B369074613B93046FFF7C7FF4836B468736835
:406FC000013B04D4B4F90C507DB16834F8E733680BB13668F2E704213846FFF79FFF30600028F6D10C233B60F8BD4FF6FF73E3810123A38165662560A560656025616561FF
:40700000A5610822294604F15C00FFF72FFD6563A563A564E5642046F8BD00BFB89108102DE9F8438046894600F14804002694B1A5686768013F0CD4AB89012B07D9B5F969
:407040000E30013303D029464046C84706436835F0E72468EBE73046BDE8F88370B50E46B1F90E10002990B014461D4606DA00232B60B3891A060ED540230EE001AA00F0F6
:407080009FFD0028F3DB029A02F47042A2F500535A425A412A604FF480630020236010B070BD00008B8973B59E0705460C4610D401AB6A46FFF7D2FF00990646284600F0D1
:4070C0007BF868B9B4F90C309A0522D443F00203A38104F14703236023610123636118E00D4BAB62A389206043F08003A381009B6361019B20614BB1B4F90E10284600F070
:4071000071FD18B1A38943F00103A381A0893043A08102B070BD00BFC96E081038B50546002946D051F8043C0C1F002BB8BFE41800F0E9FD1F4A1368114613B9636014600A
:4071400032E0A3420ED92268A018834204BF18685B68636004BF121822600C6024E0A24203D813465A68002AF9D118681918A1420BD12168014458188242196014D110686C
:4071800052685A60014419600EE002D90C232B600AE021686018824204BF10685268626004BF091821605C602846BDE8384000F0ABBD38BD248F020870B5CD1C25F00305D3
:4071C00008350C2D38BF0C25002D064601DBA94202D90C23336046E000F095FD234B1C681A462146A1B10B685B1B0ED40B2B03D90B60CC18CD501EE08C420DBF63684B6802
:407200006360136018BF0C4615E00C464968E9E7174C23681BB9304600F05CFC20602946304600F057FC431C18D0C41C24F00304A0420DD12560304600F066FD04F10B00AF
